{
  "_format": "hh-sol-artifact-1",
  "contractName": "Voting",
  "sourceName": "contracts/Voting.sol",
  "abi": [
    {
      "inputs": [],
      "stateMutability": "nonpayable",
      "type": "constructor"
    },
    {
      "inputs": [
        {
          "internalType": "string",
          "name": "electionName",
          "type": "string"
        },
        {
          "internalType": "string",
          "name": "candidateName",
          "type": "string"
        },
        {
          "internalType": "address",
          "name": "currentAccount",
          "type": "address"
        }
      ],
      "name": "addCandidate",
      "outputs": [],
      "stateMutability": "nonpayable",
      "type": "function"
    },
    {
      "inputs": [
        {
          "internalType": "string",
          "name": "electionName",
          "type": "string"
        },
        {
          "internalType": "address",
          "name": "currentAccount",
          "type": "address"
        },
        {
          "internalType": "address",
          "name": "acnt",
          "type": "address"
        }
      ],
      "name": "addVoter",
      "outputs": [],
      "stateMutability": "nonpayable",
      "type": "function"
    },
    {
      "inputs": [
        {
          "internalType": "string",
          "name": "electionName",
          "type": "string"
        }
      ],
      "name": "allCandidates",
      "outputs": [
        {
          "internalType": "string[]",
          "name": "",
          "type": "string[]"
        }
      ],
      "stateMutability": "view",
      "type": "function"
    },
    {
      "inputs": [
        {
          "internalType": "address",
          "name": "currentAccount",
          "type": "address"
        }
      ],
      "name": "allElections",
      "outputs": [
        {
          "internalType": "string[]",
          "name": "",
          "type": "string[]"
        }
      ],
      "stateMutability": "view",
      "type": "function"
    },
    {
      "inputs": [
        {
          "internalType": "string",
          "name": "electionName",
          "type": "string"
        },
        {
          "internalType": "address",
          "name": "currentAccount",
          "type": "address"
        }
      ],
      "name": "cancelElection",
      "outputs": [],
      "stateMutability": "nonpayable",
      "type": "function"
    },
    {
      "inputs": [
        {
          "internalType": "string",
          "name": "electionName",
          "type": "string"
        },
        {
          "internalType": "uint256",
          "name": "candidateIndex",
          "type": "uint256"
        },
        {
          "internalType": "address",
          "name": "currentAccount",
          "type": "address"
        }
      ],
      "name": "castVote",
      "outputs": [],
      "stateMutability": "nonpayable",
      "type": "function"
    },
    {
      "inputs": [
        {
          "internalType": "string",
          "name": "name",
          "type": "string"
        },
        {
          "internalType": "uint256",
          "name": "startTime",
          "type": "uint256"
        },
        {
          "internalType": "uint256",
          "name": "endTime",
          "type": "uint256"
        },
        {
          "internalType": "address",
          "name": "creater",
          "type": "address"
        }
      ],
      "name": "createElection",
      "outputs": [],
      "stateMutability": "nonpayable",
      "type": "function"
    },
    {
      "inputs": [
        {
          "internalType": "uint256",
          "name": "",
          "type": "uint256"
        }
      ],
      "name": "electionNames",
      "outputs": [
        {
          "internalType": "string",
          "name": "",
          "type": "string"
        }
      ],
      "stateMutability": "view",
      "type": "function"
    },
    {
      "inputs": [
        {
          "internalType": "string",
          "name": "",
          "type": "string"
        }
      ],
      "name": "elections",
      "outputs": [
        {
          "internalType": "string",
          "name": "name",
          "type": "string"
        },
        {
          "internalType": "uint256",
          "name": "startTime",
          "type": "uint256"
        },
        {
          "internalType": "uint256",
          "name": "endTime",
          "type": "uint256"
        }
      ],
      "stateMutability": "view",
      "type": "function"
    },
    {
      "inputs": [
        {
          "internalType": "string",
          "name": "electionName",
          "type": "string"
        }
      ],
      "name": "getResults",
      "outputs": [
        {
          "components": [
            {
              "internalType": "string",
              "name": "name",
              "type": "string"
            },
            {
              "internalType": "uint256",
              "name": "votes",
              "type": "uint256"
            }
          ],
          "internalType": "struct Voting.Candidate[]",
          "name": "",
          "type": "tuple[]"
        }
      ],
      "stateMutability": "view",
      "type": "function"
    },
    {
      "inputs": [
        {
          "internalType": "string",
          "name": "",
          "type": "string"
        }
      ],
      "name": "myElections",
      "outputs": [
        {
          "internalType": "address",
          "name": "",
          "type": "address"
        }
      ],
      "stateMutability": "view",
      "type": "function"
    },
    {
      "inputs": [],
      "name": "owner",
      "outputs": [
        {
          "internalType": "address",
          "name": "",
          "type": "address"
        }
      ],
      "stateMutability": "view",
      "type": "function"
    }
  ],
  "bytecode": "0x608060405234801561001057600080fd5b50336000806101000a81548173ffffffffffffffffffffffffffffffffffffffff021916908373ffffffffffffffffffffffffffffffffffffffff160217905550612ae2806100606000396000f3fe608060405234801561001057600080fd5b50600436106100b45760003560e01c80635027ff1a116100715780635027ff1a146101b3578063869d526d146101e35780638da5cb5b146101ff578063ad3290701461021d578063c75476a014610239578063dc6eef3714610269576100b4565b80630b32ff77146100b95780632ff20f01146100d557806339d59bb3146101055780633e28a24b1461013557806342fa781f146101655780634a3ccc9614610181575b600080fd5b6100d360048036038101906100ce91906118a6565b610285565b005b6100ef60048036038101906100ea9190611931565b61041b565b6040516100fc9190611b11565b60405180910390f35b61011f600480360381019061011a9190611b5f565b610728565b60405161012c9190611bd6565b60405180910390f35b61014f600480360381019061014a9190611931565b6107d4565b60405161015c9190611cba565b60405180910390f35b61017f600480360381019061017a9190611cdc565b610949565b005b61019b60048036038101906101969190611931565b610c0b565b6040516101aa93929190611d5a565b60405180910390f35b6101cd60048036038101906101c89190611d98565b610cd3565b6040516101da9190611cba565b60405180910390f35b6101fd60048036038101906101f89190611dc5565b61105e565b005b6102076111e6565b6040516102149190611e43565b60405180910390f35b61023760048036038101906102329190611e5e565b61120a565b005b610253600480360381019061024e9190611931565b61132b565b6040516102609190611e43565b60405180910390f35b610283600480360381019061027e9190611ee1565b611374565b005b6002836040516102959190611f79565b90815260200160405180910390206001015442106102e8576040517f08c379a00000000000000000000000000000000000000000000000000000000081526004016102df90612002565b60405180910390fd5b8073ffffffffffffffffffffffffffffffffffffffff1660038460405161030f9190611f79565b908152602001604051809103902060009054906101000a900473ffffffffffffffffffffffffffffffffffffffff1673ffffffffffffffffffffffffffffffffffffffff1614610394576040517f08c379a000000000000000000000000000000000000000000000000000000000815260040161038b90612094565b60405180910390fd5b6002836040516103a49190611f79565b9081526020016040518091039020600401604051806040016040528084815260200160008152509080600181540180825580915050600190039060005260206000209060020201600090919091909150600082015181600001908161040991906122c0565b50602082015181600101555050505050565b606060028260405161042d9190611f79565b9081526020016040518091039020600201544211610480576040517f08c379a0000000000000000000000000000000000000000000000000000000008152600401610477906123de565b60405180910390fd5b60006002836040516104929190611f79565b9081526020016040518091039020600401805490500361050857600067ffffffffffffffff8111156104c7576104c661171d565b5b60405190808252806020026020018201604052801561050057816020015b6104ed611624565b8152602001906001900390816104e55790505b509050610723565b600060028360405161051a9190611f79565b90815260200160405180910390206004018054905067ffffffffffffffff8111156105485761054761171d565b5b60405190808252806020026020018201604052801561058157816020015b61056e611624565b8152602001906001900390816105665790505b50905060005b6002846040516105979190611f79565b90815260200160405180910390206004018054905081101561071d576002846040516105c39190611f79565b908152602001604051809103902060040181815481106105e6576105e56123fe565b5b90600052602060002090600202016000018054610602906120e3565b80601f016020809104026020016040519081016040528092919081815260200182805461062e906120e3565b801561067b5780601f106106505761010080835404028352916020019161067b565b820191906000526020600020905b81548152906001019060200180831161065e57829003601f168201915b5050505050828281518110610693576106926123fe565b5b6020026020010151600001819052506002846040516106b29190611f79565b908152602001604051809103902060040181815481106106d5576106d46123fe565b5b9060005260206000209060020201600101548282815181106106fa576106f96123fe565b5b6020026020010151602001818152505080806107159061245c565b915050610587565b50809150505b919050565b6001818154811061073857600080fd5b906000526020600020016000915090508054610753906120e3565b80601f016020809104026020016040519081016040528092919081815260200182805461077f906120e3565b80156107cc5780601f106107a1576101008083540402835291602001916107cc565b820191906000526020600020905b8154815290600101906020018083116107af57829003601f168201915b505050505081565b606060006002836040516107e89190611f79565b908152602001604051809103902060040190506000818054905067ffffffffffffffff81111561081b5761081a61171d565b5b60405190808252806020026020018201604052801561084e57816020015b60608152602001906001900390816108395790505b50905060005b828054905081101561093e57828181548110610873576108726123fe565b5b9060005260206000209060020201600001805461088f906120e3565b80601f01602080910402602001604051908101604052809291908181526020018280546108bb906120e3565b80156109085780601f106108dd57610100808354040283529160200191610908565b820191906000526020600020905b8154815290600101906020018083116108eb57829003601f168201915b50505050508282815181106109205761091f6123fe565b5b602002602001018190525080806109369061245c565b915050610854565b508092505050919050565b6002836040516109599190611f79565b908152602001604051809103902060010154421015801561099b57506002836040516109859190611f79565b9081526020016040518091039020600201544211155b6109da576040517f08c379a00000000000000000000000000000000000000000000000000000000081526004016109d1906124f0565b60405180910390fd5b6002836040516109ea9190611f79565b908152602001604051809103902060030160003373ffffffffffffffffffffffffffffffffffffffff1673ffffffffffffffffffffffffffffffffffffffff16815260200190815260200160002060009054906101000a900460ff1615610a86576040517f08c379a0000000000000000000000000000000000000000000000000000000008152600401610a7d9061255c565b60405180910390fd5b60011515600484604051610a9a9190611f79565b908152602001604051809103902060008373ffffffffffffffffffffffffffffffffffffffff1673ffffffffffffffffffffffffffffffffffffffff16815260200190815260200160002060009054906101000a900460ff16151514610b35576040517f08c379a0000000000000000000000000000000000000000000000000000000008152600401610b2c906125c8565b60405180910390fd5b6001600284604051610b479190611f79565b908152602001604051809103902060030160003373ffffffffffffffffffffffffffffffffffffffff1673ffffffffffffffffffffffffffffffffffffffff16815260200190815260200160002060006101000a81548160ff021916908315150217905550600283604051610bbc9190611f79565b90815260200160405180910390206004018281548110610bdf57610bde6123fe565b5b90600052602060002090600202016001016000815480929190610c019061245c565b9190505550505050565b600281805160208101820180518482526020830160208501208183528095505050505050600091509050806000018054610c44906120e3565b80601f0160208091040260200160405190810160405280929190818152602001828054610c70906120e3565b8015610cbd5780601f10610c9257610100808354040283529160200191610cbd565b820191906000526020600020905b815481529060010190602001808311610ca057829003601f168201915b5050505050908060010154908060020154905083565b6060600060018054905067ffffffffffffffff811115610cf657610cf561171d565b5b604051908082528060200260200182016040528015610d2957816020015b6060815260200190600190039081610d145790505b5090506000805b600180549050811015610f4757600360018281548110610d5357610d526123fe565b5b90600052602060002001604051610d6a919061266b565b908152602001604051809103902060009054906101000a900473ffffffffffffffffffffffffffffffffffffffff1673ffffffffffffffffffffffffffffffffffffffff168573ffffffffffffffffffffffffffffffffffffffff161480610e5b575060011515600460018381548110610de757610de66123fe565b5b90600052602060002001604051610dfe919061266b565b908152602001604051809103902060008773ffffffffffffffffffffffffffffffffffffffff1673ffffffffffffffffffffffffffffffffffffffff16815260200190815260200160002060009054906101000a900460ff161515145b15610f345760018181548110610e7457610e736123fe565b5b906000526020600020018054610e89906120e3565b80601f0160208091040260200160405190810160405280929190818152602001828054610eb5906120e3565b8015610f025780601f10610ed757610100808354040283529160200191610f02565b820191906000526020600020905b815481529060010190602001808311610ee557829003601f168201915b5050505050838381518110610f1a57610f196123fe565b5b60200260200101819052508180610f309061245c565b9250505b8080610f3f9061245c565b915050610d30565b5060008103610fa857600067ffffffffffffffff811115610f6b57610f6a61171d565b5b604051908082528060200260200182016040528015610f9e57816020015b6060815260200190600190039081610f895790505b5092505050611059565b60008167ffffffffffffffff811115610fc457610fc361171d565b5b604051908082528060200260200182016040528015610ff757816020015b6060815260200190600190039081610fe25790505b50905060005b8281101561105157838181518110611018576110176123fe565b5b6020026020010151828281518110611033576110326123fe565b5b602002602001018190525080806110499061245c565b915050610ffd565b508093505050505b919050565b60028360405161106e9190611f79565b90815260200160405180910390206001015442106110c1576040517f08c379a00000000000000000000000000000000000000000000000000000000081526004016110b8906126f4565b60405180910390fd5b8173ffffffffffffffffffffffffffffffffffffffff166003846040516110e89190611f79565b908152602001604051809103902060009054906101000a900473ffffffffffffffffffffffffffffffffffffffff1673ffffffffffffffffffffffffffffffffffffffff161461116d576040517f08c379a000000000000000000000000000000000000000000000000000000000815260040161116490612786565b60405180910390fd5b600160048460405161117f9190611f79565b908152602001604051809103902060008373ffffffffffffffffffffffffffffffffffffffff1673ffffffffffffffffffffffffffffffffffffffff16815260200190815260200160002060006101000a81548160ff021916908315150217905550505050565b60008054906101000a900473ffffffffffffffffffffffffffffffffffffffff1681565b81831061124c576040517f08c379a000000000000000000000000000000000000000000000000000000000815260040161124390612818565b60405180910390fd5b600060028560405161125e9190611f79565b908152602001604051809103902090508481600001908161127f91906122c0565b508381600101819055508281600201819055506001859080600181540180825580915050600190039060005260206000200160009091909190915090816112c691906122c0565b50816003866040516112d89190611f79565b908152602001604051809103902060006101000a81548173ffffffffffffffffffffffffffffffffffffffff021916908373ffffffffffffffffffffffffffffffffffffffff1602179055505050505050565b6003818051602081018201805184825260208301602085012081835280955050505050506000915054906101000a900473ffffffffffffffffffffffffffffffffffffffff1681565b6002826040516113849190611f79565b9081526020016040518091039020600101544210806113c357506002826040516113ae9190611f79565b90815260200160405180910390206002015442115b611402576040517f08c379a00000000000000000000000000000000000000000000000000000000081526004016113f9906128aa565b60405180910390fd5b8073ffffffffffffffffffffffffffffffffffffffff166003836040516114299190611f79565b908152602001604051809103902060009054906101000a900473ffffffffffffffffffffffffffffffffffffffff1673ffffffffffffffffffffffffffffffffffffffff16146114ae576040517f08c379a00000000000000000000000000000000000000000000000000000000081526004016114a590612916565b60405180910390fd5b6002826040516114be9190611f79565b9081526020016040518091039020600080820160006114dd919061163e565b600182016000905560028201600090556004820160006114fd919061167e565b505060005b60018054905081101561161f57826040516020016115209190611f79565b604051602081830303815290604052805190602001206001828154811061154a576115496123fe565b5b90600052602060002001604051602001611564919061266b565b604051602081830303815290604052805190602001200361160c5760018080805490506115919190612936565b815481106115a2576115a16123fe565b5b90600052602060002001600182815481106115c0576115bf6123fe565b5b9060005260206000200190816115d69190612995565b5060018054806115e9576115e8612a7d565b5b600190038181906000526020600020016000611605919061163e565b905561161f565b80806116179061245c565b915050611502565b505050565b604051806040016040528060608152602001600081525090565b50805461164a906120e3565b6000825580601f1061165c575061167b565b601f01602090049060005260206000209081019061167a91906116a2565b5b50565b508054600082556002029060005260206000209081019061169f91906116bf565b50565b5b808211156116bb5760008160009055506001016116a3565b5090565b5b808211156116ea57600080820160006116d9919061163e565b6001820160009055506002016116c0565b5090565b6000604051905090565b600080fd5b600080fd5b600080fd5b600080fd5b6000601f19601f8301169050919050565b7f4e487b7100000000000000000000000000000000000000000000000000000000600052604160045260246000fd5b6117558261170c565b810181811067ffffffffffffffff821117156117745761177361171d565b5b80604052505050565b60006117876116ee565b9050611793828261174c565b919050565b600067ffffffffffffffff8211156117b3576117b261171d565b5b6117bc8261170c565b9050602081019050919050565b82818337600083830152505050565b60006117eb6117e684611798565b61177d565b90508281526020810184848401111561180757611806611707565b5b6118128482856117c9565b509392505050565b600082601f83011261182f5761182e611702565b5b813561183f8482602086016117d8565b91505092915050565b600073ffffffffffffffffffffffffffffffffffffffff82169050919050565b600061187382611848565b9050919050565b61188381611868565b811461188e57600080fd5b50565b6000813590506118a08161187a565b92915050565b6000806000606084860312156118bf576118be6116f8565b5b600084013567ffffffffffffffff8111156118dd576118dc6116fd565b5b6118e98682870161181a565b935050602084013567ffffffffffffffff81111561190a576119096116fd565b5b6119168682870161181a565b925050604061192786828701611891565b9150509250925092565b600060208284031215611947576119466116f8565b5b600082013567ffffffffffffffff811115611965576119646116fd565b5b6119718482850161181a565b91505092915050565b600081519050919050565b600082825260208201905092915050565b6000819050602082019050919050565b600081519050919050565b600082825260208201905092915050565b60005b838110156119e05780820151818401526020810190506119c5565b60008484015250505050565b60006119f7826119a6565b611a0181856119b1565b9350611a118185602086016119c2565b611a1a8161170c565b840191505092915050565b6000819050919050565b611a3881611a25565b82525050565b60006040830160008301518482036000860152611a5b82826119ec565b9150506020830151611a706020860182611a2f565b508091505092915050565b6000611a878383611a3e565b905092915050565b6000602082019050919050565b6000611aa78261197a565b611ab18185611985565b935083602082028501611ac385611996565b8060005b85811015611aff5784840389528151611ae08582611a7b565b9450611aeb83611a8f565b925060208a01995050600181019050611ac7565b50829750879550505050505092915050565b60006020820190508181036000830152611b2b8184611a9c565b905092915050565b611b3c81611a25565b8114611b4757600080fd5b50565b600081359050611b5981611b33565b92915050565b600060208284031215611b7557611b746116f8565b5b6000611b8384828501611b4a565b91505092915050565b600082825260208201905092915050565b6000611ba8826119a6565b611bb28185611b8c565b9350611bc28185602086016119c2565b611bcb8161170c565b840191505092915050565b60006020820190508181036000830152611bf08184611b9d565b905092915050565b600081519050919050565b600082825260208201905092915050565b6000819050602082019050919050565b6000611c3083836119ec565b905092915050565b6000602082019050919050565b6000611c5082611bf8565b611c5a8185611c03565b935083602082028501611c6c85611c14565b8060005b85811015611ca85784840389528151611c898582611c24565b9450611c9483611c38565b925060208a01995050600181019050611c70565b50829750879550505050505092915050565b60006020820190508181036000830152611cd48184611c45565b905092915050565b600080600060608486031215611cf557611cf46116f8565b5b600084013567ffffffffffffffff811115611d1357611d126116fd565b5b611d1f8682870161181a565b9350506020611d3086828701611b4a565b9250506040611d4186828701611891565b9150509250925092565b611d5481611a25565b82525050565b60006060820190508181036000830152611d748186611b9d565b9050611d836020830185611d4b565b611d906040830184611d4b565b949350505050565b600060208284031215611dae57611dad6116f8565b5b6000611dbc84828501611891565b91505092915050565b600080600060608486031215611dde57611ddd6116f8565b5b600084013567ffffffffffffffff811115611dfc57611dfb6116fd565b5b611e088682870161181a565b9350506020611e1986828701611891565b9250506040611e2a86828701611891565b9150509250925092565b611e3d81611868565b82525050565b6000602082019050611e586000830184611e34565b92915050565b60008060008060808587031215611e7857611e776116f8565b5b600085013567ffffffffffffffff811115611e9657611e956116fd565b5b611ea28782880161181a565b9450506020611eb387828801611b4a565b9350506040611ec487828801611b4a565b9250506060611ed587828801611891565b91505092959194509250565b60008060408385031215611ef857611ef76116f8565b5b600083013567ffffffffffffffff811115611f1657611f156116fd565b5b611f228582860161181a565b9250506020611f3385828601611891565b9150509250929050565b600081905092915050565b6000611f53826119a6565b611f5d8185611f3d565b9350611f6d8185602086016119c2565b80840191505092915050565b6000611f858284611f48565b915081905092915050565b7f416464696e672063616e6469646174657320616674657220656c656374696f6e60008201527f207374617274206973206e6f7420616c6c6f7765640000000000000000000000602082015250565b6000611fec603583611b8c565b9150611ff782611f90565b604082019050919050565b6000602082019050818103600083015261201b81611fdf565b9050919050565b7f6f6e6c7920656c656374696f6e20637265617465722063616e2061646420636160008201527f6e64696461746500000000000000000000000000000000000000000000000000602082015250565b600061207e602783611b8c565b915061208982612022565b604082019050919050565b600060208201905081810360008301526120ad81612071565b9050919050565b7f4e487b7100000000000000000000000000000000000000000000000000000000600052602260045260246000fd5b600060028204905060018216806120fb57607f821691505b60208210810361210e5761210d6120b4565b5b50919050565b60008190508160005260206000209050919050565b60006020601f8301049050919050565b600082821b905092915050565b6000600883026121767fffffffffffffffffffffffffffffffffffffffffffffffffffffffffffffffff82612139565b6121808683612139565b95508019841693508086168417925050509392505050565b6000819050919050565b60006121bd6121b86121b384611a25565b612198565b611a25565b9050919050565b6000819050919050565b6121d7836121a2565b6121eb6121e3826121c4565b848454612146565b825550505050565b600090565b6122006121f3565b61220b8184846121ce565b505050565b5b8181101561222f576122246000826121f8565b600181019050612211565b5050565b601f8211156122745761224581612114565b61224e84612129565b8101602085101561225d578190505b61227161226985612129565b830182612210565b50505b505050565b600082821c905092915050565b600061229760001984600802612279565b1980831691505092915050565b60006122b08383612286565b9150826002028217905092915050565b6122c9826119a6565b67ffffffffffffffff8111156122e2576122e161171d565b5b6122ec82546120e3565b6122f7828285612233565b600060209050601f83116001811461232a5760008415612318578287015190505b61232285826122a4565b86555061238a565b601f19841661233886612114565b60005b828110156123605784890151825560018201915060208501945060208101905061233b565b8683101561237d5784890151612379601f891682612286565b8355505b6001600288020188555050505b505050505050565b7f456c656374696f6e206973207374696c6c206f6e676f696e6700000000000000600082015250565b60006123c8601983611b8c565b91506123d382612392565b602082019050919050565b600060208201905081810360008301526123f7816123bb565b9050919050565b7f4e487b7100000000000000000000000000000000000000000000000000000000600052603260045260246000fd5b7f4e487b7100000000000000000000000000000000000000000000000000000000600052601160045260246000fd5b600061246782611a25565b91507fffffffffffffffffffffffffffffffffffffffffffffffffffffffffffffffff82036124995761249861242d565b5b600182019050919050565b7f566f74696e67206f75747369646520656c656374696f6e20706572696f640000600082015250565b60006124da601e83611b8c565b91506124e5826124a4565b602082019050919050565b60006020820190508181036000830152612509816124cd565b9050919050565b7f416c726561647920766f74656420696e207468697320656c656374696f6e0000600082015250565b6000612546601e83611b8c565b915061255182612510565b602082019050919050565b6000602082019050818103600083015261257581612539565b9050919050565b7f596f7520617265206e6f7420696e2074686520766f746572206c697374000000600082015250565b60006125b2601d83611b8c565b91506125bd8261257c565b602082019050919050565b600060208201905081810360008301526125e1816125a5565b9050919050565b600081546125f5816120e3565b6125ff8186611f3d565b9450600182166000811461261a576001811461262f57612662565b60ff1983168652811515820286019350612662565b61263885612114565b60005b8381101561265a5781548189015260018201915060208101905061263b565b838801955050505b50505092915050565b600061267782846125e8565b915081905092915050565b7f416464696e6720766f74657220616674657220656c656374696f6e207374617260008201527f74206973206e6f7420616c6c6f77656400000000000000000000000000000000602082015250565b60006126de603083611b8c565b91506126e982612682565b604082019050919050565b6000602082019050818103600083015261270d816126d1565b9050919050565b7f6f6e6c7920656c656374696f6e20637265617465722063616e2061646420766f60008201527f7465720000000000000000000000000000000000000000000000000000000000602082015250565b6000612770602383611b8c565b915061277b82612714565b604082019050919050565b6000602082019050818103600083015261279f81612763565b9050919050565b7f53746172742074696d65206d757374206265206265666f726520656e6420746960008201527f6d65000000000000000000000000000000000000000000000000000000000000602082015250565b6000612802602283611b8c565b915061280d826127a6565b604082019050919050565b60006020820190508181036000830152612831816127f5565b9050919050565b7f43616e6e6f742063616e63656c20696e206265747765656e2074686520656c6560008201527f6374696f6e20737461727420616e6420656e642074696d650000000000000000602082015250565b6000612894603883611b8c565b915061289f82612838565b604082019050919050565b600060208201905081810360008301526128c381612887565b9050919050565b7f6f6e6c7920637265617465722063616e2063616e63656c20656c656374696f6e600082015250565b6000612900602083611b8c565b915061290b826128ca565b602082019050919050565b6000602082019050818103600083015261292f816128f3565b9050919050565b600061294182611a25565b915061294c83611a25565b92508282039050818111156129645761296361242d565b5b92915050565b600081549050612979816120e3565b9050919050565b60008190508160005260206000209050919050565b8181036129a3575050612a7b565b6129ac8261296a565b67ffffffffffffffff8111156129c5576129c461171d565b5b6129cf82546120e3565b6129da828285612233565b6000601f831160018114612a0957600084156129f7578287015490505b612a0185826122a4565b865550612a74565b601f198416612a1787612980565b9650612a2286612114565b60005b82811015612a4a57848901548255600182019150600185019450602081019050612a25565b86831015612a675784890154612a63601f891682612286565b8355505b6001600288020188555050505b5050505050505b565b7f4e487b7100000000000000000000000000000000000000000000000000000000600052603160045260246000fdfea264697066735822122062df20f0d9f370ee44ad0142007cfefb43bb26e922278e08d1a468cb7c03b88664736f6c63430008130033",
  "linkReferences": {},
  "deployedLinkReferences": {}
}